:020000040800F2
:1000000040130020ED01000879520008C14C00089F
:100010007552000891090008555D000800000000B5
:10002000000000000000000000000000F15B00087C
:100030005D0A0008000000007D520008F55B000822
:10004000070200080702000807020008955300088D
:10005000070200080702000807020008070200085C
:10006000070200080702000807020008070200084C
:10007000070200080702000807020008070200083C
:10008000070200080702000807020008070200082C
:10009000070200080702000807020008070200081C
:1000A000070200080702000807020008070200080C
:1000B00007020008070200080702000807020008FC
:1000C00007020008070200080702000807020008EC
:1000D00007020008070200080702000807020008DC
:1000E00007020008070200080702000807020008CC
:1000F00007020008070200080702000807020008BC
:1001000007020008070200080702000807020008AB
:10011000070200080702000807020008070200089B
:10012000070200080702000807020008070200088B
:1001300007020008070200080702000800F002F8A2
:1001400000F044F80AA090E8000C82448344AAF12D
:100150000107DA4501D100F039F8AFF2090EBAE82B
:100160000F0013F0010F18BFFB1A43F001031847EB
:10017000A4740000C4740000103A24BF78C878C189
:10018000FAD8520724BF30C830C144BF04680C609D
:10019000704700000023002400250026103A28BFE5
:1001A00078C1FBD8520728BF30C148BF0B607047E9
:1001B000642900F08380782900F0BC80002070471B
:1001C0001FB506F07CFF1FBD10B510BD00F058FA3A
:1001D0001146FFF7F5FF06F035FA00F076FA03B4A2
:1001E000FFF7F2FF03BC00F07DFA000009488047EA
:1001F00009480047FEE7FEE7FEE7FEE7FEE7FEE709
:10020000FEE7FEE7FEE7FEE704480549054A064B20
:1002100070470000A15C00083D010008400B002071
:1002200040130020400F0020400F00200FB41CB5E9
:10023000074B06AA7B4469460090059800F079F9BF
:100240000020694600F088F91CBC5DF814FB000032
:10025000210300002DE9F0410E46044600202062F3
:100260002046E168884730B3252805D0D4E901212C
:100270009047206A401CF2E7E16820460027884743
:10028000050018D0A5F14100192802D820354FF4F7
:1002900000673246294620462760FFF789FF40B1B4
:1002A000012804D0F61D26F007060836D8E7361DCB
:1002B000D6E72846DAE7206ABDE8F0812DE9F0416B
:1002C0000646002410687529314616A510D0AFF3F4
:1002D0000080002802DA404213A507E031688A074F
:1002E00001D512A502E0490704D511A5012401E0BA
:1002F000AFF3008000210A2206F1240709E0B0FBD9
:10030000F2FCB0FBF2F302FB1C00303078541846CC
:10031000491C0028F3D123462A463046BDE8F04167
:1003200000F0A9B8000000002D0000002B00000024
:100330002000000070B504460D4621461068AFF35A
:1003400000802188090502D50F4A7A4402E00E4A4E
:100350007A440E32002104F1240305E000F00F0678
:100360000009965D5E54491C0028F7D120780023CF
:10037000000704D5702D02D009B1022311322046A6
:10038000BDE8704000F077B88A6D0000032A40F2A3
:10039000308010F0030C00F0158011F8013BBCF127
:1003A000020F624498BF11F801CB00F8013B38BF3F
:1003B00011F8013BA2F1040298BF00F801CB38BF4D
:1003C00000F8013B11F0030300F0CB80083AC0F0C5
:1003D000088051F8043B083A51F804CBA0E8081013
:1003E000F5E7121D5CBF51F8043B40F8043BAFF346
:1003F0000080D20724BF11F8013B11F801CB48BFA0
:1004000011F8012B24BF00F8013B00F801CB48BFD5
:1004100000F8012B70474FF0000200B513469446D8
:100420009646203922BFA0E80C50A0E80C50B1F14C
:100430002001BFF4F7AF090728BFA0E80C5048BF60
:100440000CC05DF804EB890028BF40F8042B08BFFE
:10045000704748BF20F8022B11F0804F18BF00F8FA
:10046000012B7047014900F0AFB8000018000020D0
:100470007047704770472DE9F0470D469946924600
:10048000044600F124080168880604D5E06921F0DB
:100490001001216000E00120A84201DD471B00E0BF
:1004A0000027A1697A1902EB0900081AA0612078D7
:1004B000C00602D42046AFF30080002608E0D4E94D
:1004C00001211AF806009047206A401C761C206221
:1004D0004E45F4DB2078C0060AD52046AFF30080F5
:1004E00006E0D4E9012130209047206A401C2062B8
:1004F000381EA7F10107F4DC07E0D4E9012118F860
:1005000005009047206A401C2062281EA5F10105C5
:10051000F3DC2046AFF300802078000602D50220ED
:10052000BDE8F0870120FBE701694A1C02610878F9
:10053000704700B58FB0CDE9013100210591054923
:100540007944CDE9031011466846FFF783FE0FB0EA
:1005500000BD0000E5FFFFFF0A6802F8010B0A601A
:10056000704710B5203AC0F00B80B1E81850A0E8F1
:100570001850B1E81850A0E81850203ABFF4F5AF71
:100580005FEA027C24BFB1E81850A0E8185044BFCD
:1005900018C918C0BDE810405FEA827C24BF51F83A
:1005A000043B40F8043B08BF7047D20728BF31F82E
:1005B000023B48BF11F8012B28BF20F8023B48BF7F
:1005C00000F8012B7047000070B50C460168002050
:1005D0004A1C3ED03C22B1FBF2F302FB1313B1FBE9
:1005E000F2F12360B1FBF2F302FB1313B1FBF2F162
:1005F00018226360B1FBF2F302FB1313B1FBF2F1BB
:1006000046F2E0320A440721A360B2FBF1F301FB9A
:10061000132140F2B553B2FBF3F5A161B2FBF3F144
:1006200003FB15228900B2F5B77F08D39B10521E39
:10063000B2FBF3F52944B2FBF3F503FB15220F4B94
:10064000E261616189077B440CD03B2A0AD3521CCA
:1006500008E02C212046FFF7DEFE0120E0600AE0E2
:10066000521A401C195C9142FAD9521CC4E9032069
:100670004FF0FF302062204670BD0000B66A0000D7
:10068000754600F02BF8AE4605006946534620F04B
:100690000700854618B020B5FFF7B6FDBDE820403D
:1006A0004FF000064FF000074FF000084FF0000B2E
:1006B000AC46ACE8C009ACE8C009ACE8C009ACE89D
:1006C000C00921F007018D46704710B50446AFF30D
:1006D00000802046BDE81040FFF781BD004870470C
:1006E0004400002001491820ABBEFEE726000200AE
:1006F000704700002DE9F04F81B040F2AF0540F6A1
:10070000642640F2870B80460E276FF00F09C2F275
:10071000000542F21074C2F200064FF0010AC1F265
:10072000000B02E00137CC2F1BD059FA87F01C28B0
:1007300004D80AFA00F010EA0B0FF3D118F80700FA
:100740002F7068703046AA212A460223009401F0D7
:1007500083FD0028E6D0304601F07CFB0428F1D070
:10076000E0E701B0BDE8F08F70B582B040F66424D8
:10077000F92042F21076C2F200040DF107058DF85F
:10078000070000BF2046AA212A460123009601F057
:1007900063FD28B1204601F05DFB0428F2D01BE088
:1007A00040F2AF0440F66420C2F2000442F2107638
:1007B000C2F20000AA2122460123009601F00AFCA1
:1007C00038B140F66420C2F2000001F043FB042877
:1007D00002D1207802B070BD4FF0FF3002B070BD82
:1007E000F0B583B040F2AF0440F66425C2F20004D5
:1007F00040F2EF1042F21077C2F20005208000BFF5
:100800002846AA2122460223009701F025FD78B14F
:100810000646284601F01EFB0428F1D040F61030B1
:10082000C2F200004FF0FF31002E016042D105E01E
:1008300040F61030C2F200000021016040F664254D
:10084000EF2042F21077C2F200050DF10B068DF891
:100850000B0000BF2846AA2132460123009701F071
:10086000FBFC28B1284601F0F5FA0428F2D01AE082
:1008700040F2AF0540F66420C2F2000542F2107764
:10088000C2F20000AA212A460123009701F0A2FB30
:1008900038B140F66420C2F2000001F0DBFA04280F
:1008A00001D1287801E04FF0FF3040F61031C2F25C
:1008B0000001086040F61036C2F2000630680130D0
:1008C0001AD040F6642541F62E6042F21077C2F24B
:1008D000000520802846AA2122460223009701F025
:1008E000BBFC38B1284601F0B5FA0428F2D04FF02D
:1008F000FF3000E000203060306801301AD040F650
:10090000642540F22D1042F21077C2F200052080DB
:100910002846AA2122460223009701F09DFC38B107
:10092000284601F097FA0428F2D04FF0FF3000E09B
:1009300000203060306803B0F0BD000070B50446A0
:1009400042F60000C4F20000C1688906FCD50568C3
:100950004668C6F3074004F013FD2070C6F3042078
:1009600004F00EFD607006F03F0004F009FDA07079
:10097000C5F3054004F004FDE070C5F3062004F063
:10098000FFFC207105F07F0004F0FAFC607170BD7F
:10099000FEE70000F0B585B041F20004C0F60404A3
:1009A00027684AF6EE71781EC0F2030188424ED8DD
:1009B000D4F804C00021CFB148F220334FF0FF3209
:1009C000CEF6B85304EB8106B6687240002600BF2D
:1009D000104683EA5202C50708BF42081F2E06F1DF
:1009E0000106F5D30131B942ECD1D1438C452ED16A
:1009F00000F0F8FF58BB780718BF083727F0070545
:100A000075B10826D4E90023A4F56431012000F073
:100A1000B1FE28B9AE4206F1080604F10804F1D38C
:100A200000F09CFE98B900F0DDFF78B9022002903A
:100A3000412003903B20049002A801A900F0F4FD9E
:100A4000044600F08BFE002C18BF012010B10120DD
:100A500005B0F0BD002005B0F0BD000070470000FB
:100A6000EFF3108072B600BFFEE7000070B544F2ED
:100A700010060446C5F6000601F05CF9054600BF05
:100A80003068C00306D501F055F9401BA042F7D3EA
:100A9000032070BD3068C1071CBF01213160010413
:100AA00042BF4FF40041316020F400404CF2FA3173
:100AB00008400CD040F6F821C2F2000130604860D6
:100AC000012070BD01F036F9401BA042E0D2306831
:100AD0004003F7D4002070BD2DE9F04782B00446F2
:100AE000002040F208380190C5F204082068A8F5FB
:100AF000427A50450D4607D047F2E220C0F600008A
:100B000040F6753105F0FEF96868B0F5007F19DA36
:100B1000A0F58071182908D8012202FA01F141F2EA
:100B20004102C0F2041211421BD1182800F2D480F5
:100B3000012101FA00F041F24001C0F20411084223
:100B40000FD1C9E0A0F50071182900F2BC80012284
:100B500002FA01F141F24102C0F20412114200F026
:100B6000B280A868082807D347F2E220C0F6000048
:100B700040F6773105F0C6F9E86840F200097F28B1
:100B8000C4F27F0909D0484507D047F2E220C0F6F9
:100B9000000040F6783105F0B5F92869052807D33B
:100BA00047F2E220C0F6000040F6793105F0AAF9DC
:100BB00020686969C068062202EA900040F6FF7268
:100BC00022FA00F0814207D947F2E220C0F6000085
:100BD00040F67A3105F096F9286904280BD094F88C
:100BE0003800012807D147F2E220C0F6000040F6A5
:100BF0007E3105F087F9E868484520D12868FF2153
:100C0000C2F28011884240F6873124DD40F6FF723F
:100C1000C3F26022904268DC40F2FF32C2F600224A
:100C2000904240F3C88040F20042C2F60022904257
:100C300000F0DC8040F60002C2F63062D3E02068AB
:100C400050451DD040F6833147F2E220C0F6000047
:100C500005F058F9CAE00F22C1F2C002904255DDFA
:100C60003F22C1F62012904200F3B5801022C1F25B
:100C7000C002904200F0BA802022C1F2F042B2E0FD
:100C80002868FF21C2F28011884240F683314BDC94
:100C90000322C0F66002904264DD1F22C1F2F042DE
:100CA000904200F393800422C0F66002904200F06C
:100CB0009D800822C0F69042904200F0978010225A
:100CC000C1F2C0028FE0B0F5407F3FF44AAF40F27E
:100CD000063188423FF445AF47F2E220C0F60000FB
:100CE00040F6763105F00EF93BE743F6FF72C3F6A6
:100CF000C02290422BDC41F20002C3F260229042FB
:100D000074D042F20002C3F290626CE00222C0F2A0
:100D1000304290426AD00422C0F66002904265D010
:100D20000822C0F690425EE041F6FF72C3F2906284
:100D3000904229DD4FF6FF72C4F22032904200F358
:100D4000838142F20002C3F2906290424ED044F29C
:100D50000002C3F6C022904248D048F20002C3F617
:100D6000F06240E04FF6FF72CCF68332904240F3DF
:100D70007B810022CCF68432904237D0012835D0D6
:100D80000222C0F230422EE040F2FF32C2F60022D0
:100D9000904210DD40F20042C2F60022904225D07F
:100DA00040F60002C2F6306290421FD041F20002CB
:100DB000C3F2602217E040F20012C2F280129042A9
:100DC00014D040F20022C2F2B0520CE02022C1F254
:100DD000F04290420AD04022C1F62012904205D043
:100DE0008022C1F6505290427FF42EAF94F850000A
:100DF000012803D1022002B0BDE8F087012021685C
:100E000084F850008868400700F10F81D5E9002080
:100E10001F27C0F3012301EB83031E6B00F01F00AB
:100E20008740C2F3846226EA070702FA00F03843DB
:100E3000186388688A6800F0040002F008028018CD
:100E400079D12868AA68C0F3406301EB83035F6926
:100E5000C0F3045007268640B74302FA00F0384337
:100E60005861D5E90402CB68042850D1086E086E99
:100E70002A68C0F3846092FAA2F3B3FA83F35703AB
:100E800008BFC2F3846398424FF6FF70C0F20700B8
:100E900003D10A6E22F000420A664A6E4A6E2B683F
:100EA000C2F3846293FAA3F7B7FA87F7034208BF45
:100EB000C3F38467BA4203D14A6E22F000424A6605
:100EC0008A6E8A6E2B68C2F3846293FAA3F7B7FA2C
:100ED00087F7034208BFC3F38467BA4203D18A6E1F
:100EE00022F000428A66CA6ECA6E2B68C2F3846220
:100EF00093FAA3F7B7FA87F7034208BFC3F38467EF
:100F0000BA4218D1C86E20F00040C86613E0062728
:100F100007EA93039A402B6801EB8000076E4FF2BB
:100F20000006C0F2FF3603F0F84337401A433A4355
:100F300042F0004202668868C0077CD12868EB68EE
:100F4000D1F8B07002466FF3DF4227EA020C4FF689
:100F5000FF7703F01806C0F20707F740074047EA9B
:100F60000C074B45C1F8B07029D190FAA0F3B3FA41
:100F700083F3002A08BF830E581C00F01E0200F005
:100F80001F0001230027834000EB4000CFF62067BD
:100F900007EB00571F4347F000770A2A38BF43EAA0
:100FA0000057C7F3406201EB8202A8685369C7F398
:100FB00004570726BE40B343B84018435061286821
:100FC0000022C8F20802104237D04FF60052CFF686
:100FD000FF72D8F8003058F80220D20725D100223D
:100FE000CCF25272904203F0E07208BF13F4000793
:100FF00044D00027CCF68437B84208BF13F080777E
:1010000040D00127C8F20007B8424FF0000008BFE7
:1010100013F4800312D1514510D1D8F8000020F00C
:10102000E070104340F480005EE0606D40F020000E
:101030006065012002E0002000E00020002184F82B
:10104000501002B0BDE8F0870022C4F22132904275
:101050003FF4CCAE0022C4F2527290423FF4C6AECE
:101060000022C4F68432BEE60122C8F20002904299
:101070003FF4BCAE0022CCF25272B4E6514505D02A
:101080000020DBE7514528D00020D7E7D8F8000042
:1010900042F6635120F0E070104340F40000C8F8BD
:1010A000000040F20800C2F200000068C0F23E51A9
:1010B0008009A0FB0101880900EB40000C2101EB35
:1010C00080000190019898B1019801380190019831
:1010D00000284FF00000F7D1B0E7D8F8000020F06A
:1010E000E070104340F08070C8F800000020A5E7D1
:1010F0000020A3E770B582B00446002001900CB335
:1011000040F20836C5F204062068A6F5427188420E
:1011100007D047F2E220C0F600004FF4D17104F08E
:10112000F1FE6068B0F5801F0EDBB0F5001F18DA25
:10113000B0F5C01F27DAB0F5801F3AD0B0F5A01F78
:1011400037D02EE0012514E2B0F5403F13DBB0F5B7
:10115000002F1DDAB0F5403F2BD0B0F5802F28D0FE
:101160001FE0B0F5201F18DAB0F5001F21D0B0F550
:10117000101F1ED015E0E0B1B0F5803F19D0B0F5DA
:10118000003F16D00DE014D0B0F5E01F11D008E0FC
:101190000FD0B0F5402F0CD003E00AD0B0F5301FCF
:1011A00007D047F2E220C0F6000040F2A31104F09D
:1011B000A9FEA0684FEAF000042807D347F2E22016
:1011C000C0F600004FF4D27104F09CFEE06840F0DD
:1011D0002000202807D047F2E220C0F6000040F2AD
:1011E000A51104F08FFE2069022807D347F2E22000
:1011F000C0F600004FF4D37104F084FE607E022834
:1012000007D347F2E220C0F6000040F2A71104F035
:1012100079FEE06A4FEAB020042807D347F2E220C3
:10122000C0F600004FF4D47104F06CFEA06AB0F573
:10123000986F0ADBB0F5C86F0FDB21D0B0F5D06F27
:101240001ED0B0F5D86F1BD012E0B0F5886F0BDA66
:10125000B0B1B0F5806F13D00AE0B0F5986F0FD041
:10126000B0F5B06F0CD003E00AD0B0F5906F07D0A6
:1012700047F2E220C0F6000040F2A91104F042FE5D
:1012800094F83000022807D347F2E220C0F60000AD
:101290004FF4D57104F036FE6069042809D008289F
:1012A00007D047F2E220C0F6000040F2AB1104F094
:1012B00029FE606B40F48050B0F5805F07D047F2A4
:1012C000E220C0F600004FF4D67104F01BFE207E31
:1012D000022807D347F2E220C0F6000040F2AD1129
:1012E00004F010FE94F83800022807D347F2E220F9
:1012F000C0F6000040F2BF1104F004FE206938B3CC
:10130000E0690138102807D347F2E220C0F6000058
:1013100040F2C31104F0F6FD94F82000022807D330
:1013200047F2E220C0F600004FF4E27104F0EAFD5B
:1013300094F8200001280BD1606A0138082807D3EF
:1013400047F2E220C0F600004FF4E47104F0DAFD49
:1013500094F8200001280AD1607E012807D147F2C5
:10136000E220C0F6000040F2CD1104F0CBFD606D2C
:1013700030B9204600F000F90020A06584F8500044
:1013800020688168890006D581684FF6C072C5F66D
:10139000FF72114081608168C90021D44FF6C0728C
:1013A0008168C5F6FF7202F18052114001F180514F
:1013B000816040F20801C2F20001096842F66352FE
:1013C0008909C0F23E52A1FB02129109022202EBEE
:1013D000410100BF0191019911B101990139F9E76A
:1013E0008168C90009D4616D012541F01001616572
:1013F000A16D41F00101A16500E000258168626DE9
:1014000001F0040102F010028918616D40F099802A
:1014100021F48171023161658168C9070CD14FF6F1
:101420000051CFF6FF717158C90705D16168326864
:1014300022F47C1211433160617E626B42EA4131D9
:10144000D4E90232114394F820201943012A41EAD9
:10145000024106D1626A0023CFF6FE7303EB4242DB
:101460001143A26A22B1E36A02F470721A43114373
:10147000C2684CF20703CFF6F0731A401143C16003
:101480008168826801F0040102F00802891860D1C5
:1014900094F83020217E520094F8383042EA8131AD
:1014A000C26844F20206B2431143012BC1604CD121
:1014B000E06B4FEAB000082807D347F2E220C0F6FD
:1014C00000004FF4517104F01DFD206C4FEA7010C4
:1014D000092807D347F2E220C0F6000040F2453168
:1014E00004F010FD606C40F40070B0F5007F07D090
:1014F00047F2E220C0F6000040F2463104F002FD5F
:10150000A06C40F2014140F48060884207D047F26D
:10151000E220C0F6000040F2473104F0F3FC2068FE
:10152000D4E90FCED4E91136016940F2FD7291433E
:1015300041EA0C0141EA0E011943314341F0010136
:1015400006E041F01000012512E0016921F00101DF
:10155000016120682169026B012922F00F0102D18B
:10156000E269013A11430163606D012161F30100F9
:101570006065284602B070BD10B59AB004460020E0
:101580001890CDE91600CDE9140068465021FEF709
:1015900042FF20680021C5F20401884201D01AB040
:1015A00010BD4FF4806000904FF040500F9068469F
:1015B00001F054FD002818BFFFF752FA4C20C5F681
:1015C0000000016841F400510160016801F400511C
:1015D00019911999016841F001010160006814A98D
:1015E00000F0010019901998012014900320159023
:1015F000002016904FF0904000F00CFA1AB010BD89
:10160000B0B5044600F096FB054640F20C00C2F26D
:1016100000000078611C18BF044400BF00F08AFB82
:10162000401BA042FAD3B0BD2DE9F04F81B0044673
:1016300000688A46022806D047F2C730C0F600008C
:101640009F2104F05FFC40F6F82BC2F2000B9BF8E0
:101650000000012803D1022001B0BDE8F08F012075
:101660008BF8000000254FF47A70CBF80450FFF798
:10167000FDF900286CD1216844F200060229C5F664
:1016800000063FD14FF0FF31CAF80010D4E90151F4
:1016900029448D4230D24FF6050940F20208EF008E
:1016A000CFF6FE79C0F2010847F2E050C1F6FF70B4
:1016B0000088C0F38800854207D347F2C730C0F6E0
:1016C00000004FF4FF7104F01DFC706900EA09008E
:1016D000384340EA080070614FF47A70FFF7C6F9AA
:1016E00040B9D4E90112013511448D4207F10807D0
:1016F000DAD301E0CAF80050716940F2FA729143FE
:1017000000257161316889050FD5316821F40071B8
:101710003160316841F400613160316821F4006169
:101720003160316841F400713160316849050FD58D
:10173000316821F480613160316841F48051316059
:10174000316821F480513160316841F48061316049
:101750008BF8005001B0BDE8F08F000044F2140097
:10176000C5F60000016841F0004101600068C04317
:10177000C00F70472DE9F04F83B01D469146834658
:1017800001280E4609D0BBF5802F06D047F28D30D8
:10179000C0F60000B62104F0B5FB16F0070406D031
:1017A00047F28D30C0F60000B72104F0ABFBB6F174
:1017B000006F0FD374B947F2E050C1F6FF70008894
:1017C0004FF6F8716FF3DF20C0F2FF7101EB80205C
:1017D000B0420ED206F1604000F51040B0F57E7FB9
:1017E00000D834B147F28D30C0F60000B82104F0C3
:1017F00089FB40F6F82AC2F2000A9AF80000012894
:1018000003D1022003B0BDE8F08F012044F210079D
:101810008AF8000000200295C5F60007CAF8040007
:1018200000F088FA054600BF3868C00307D500F00D
:1018300081FA401BB0F57A7FF6D3032014E03868B4
:10184000C1071CBF01213960010442BF4FF40041B0
:10185000396020F400404CF2FA31084000F0A880D2
:101860003860CAF8040001204FF00008B8F1000FFA
:1018700000F09880BBF1010F2CD1B6F1006F0FD3AF
:1018800074B947F2E050C1F6FF7000884FF6F87166
:101890006FF3DF20C0F2FF7101EB8020B0420ED267
:1018A00006F1604000F51040B0F57E7F00D834B1FD
:1018B00047F28D30C0F60000C82104F023FB7868A1
:1018C00040F001007860C6F80090BFF36F8F029877
:1018D000706036E0B6F1006F11D330060FD147F2D9
:1018E000E050C1F6FF7000884FF6F8716FF3DF200B
:1018F000C0F2FF7101EB8020F838B04206D247F207
:101900008D30C0F60000D02104F0FCFA7868A9F10F
:10191000040240F480207860EFF31080EFF3108130
:1019200072B6311F802300BF52F8046F013B1D06C1
:1019300041F8046FF8D100BF3968C903FCD480F3C3
:10194000108800F0F7F905463868C00307D500F0A5
:10195000F1F9401BB0F57A7FF6D303201EE038681A
:10196000C1071CBF01213960010442BF4FF400418F
:10197000396020F400404CF2FA3108400AD0386057
:10198000CAF80400012009E000F0D4F9401BB0F5CA
:101990007A7FE2D238684003F6D40020796821EAE1
:1019A0000B01796000218AF8001003B0BDE8F08FC8
:1019B000CDF804904FF00109386810F4802089EACE
:1019C000904807D000F0B6F9401BB0F57A7FF3D30A
:1019D000032000E00020DDF80490B8F1000FE1D012
:1019E00048E7000044F20800C5F60000C168B1F104
:1019F000FF3FC4BF0020704740F22311C4F267517B
:101A0000016048F6AB11CCF6EF510160C068C00F21
:101A1000704700002DE9F04F83B0044600F13840D4
:101A20004FEAB02005280D46019080F01D812868FE
:101A30000021B1EB104F01D180B230B947F2044020
:101A4000C0F60000AC2104F05DFA6868B0F5881FAC
:101A500080F2FA80122800F21D81012101FA00F0C3
:101A60000F21C0F20601084200F01481A868032883
:101A700006D347F20440C0F60000AE2104F042FA5B
:101A80002868002800F0DD8041F20001C4F6000162
:101A9000072240F600068C4208BF04220199C5F6D1
:101AA000000600274FF0010C4FF0030E4FF0000925
:101AB0004FF0000B042938BF0A4602920BE000BF2A
:101AC00028680BF1010B30FA0BF109F1020907F15B
:101AD000040700F0B6800CFA0BF810EA080AEFD001
:101AE000686800F003000138012820D8E86804285D
:101AF0000AD347F20440C0F60000BD2104F002FA08
:101B00004FF0030E4FF0010CA0680EFA09F1884364
:101B1000E9686A6801FA09F10843A0606068C2F3E5
:101B2000001120EA080001FA0BF1084360606868C0
:101B300000F0030003282DD0E168AB680EFA09F22B
:101B4000914303FA09F211430228E16022D101987E
:101B5000052867D22869B04610280AD347F2044006
:101B6000C0F60000D92104F0CDF94FF0030E4FF07C
:101B7000010C6FF0030000EA5B002044016A07F0EB
:101B80001C020F232E699340994306FA02F2114377
:101B90004646016220686A680EFA09F1884302F03D
:101BA000030101FA09F1084312F4403F20603FF4B9
:101BB00087AF40F208082BF00300C4F2010850F888
:101BC000081007F00C020F2393409943029B03FA7D
:101BD00002F2114340F808103068696840EA0A02CE
:101BE000CB0258BF20EA0A02326070688B0240EADA
:101BF0000A0258BF20EA0A027260D6F88000CB03BE
:101C000040EA0A0258BF20EA0A02C6F88020D6F845
:101C10008400890340EA0A0258BF20EA0A02C6F893
:101C200084204DE70198072894D047F20440C0F67D
:101C30000000D82104F066F94FF0030E4FF0010CBC
:101C400088E703B0BDE8F08FB0F5081F18DAB0F5EB
:101C5000881F3FF40BAFB0F5901F3FF407AFB0F50E
:101C6000041F3FF403AF15E0019807283FF4DFAEEF
:101C700047F20440C0F60000AB2104F043F9D6E679
:101C80003FF4F4AEB0F5441F3FF4F0AEB0F5481F9A
:101C90003FF4ECAE47F20440C0F60000AD2104F082
:101CA00031F9E3E6B0B50C46054639B947F20440D0
:101CB000C0F600004FF4BB7104F024F928692040FD
:101CC00018BF0120B0BD0000B0B50C46054639B9BB
:101CD00047F20440C0F6000040F2C71104F012F9C8
:101CE000686900EA040124EA000040EA0140A861B2
:101CF000B0BD000070B515460C46064679B1022D00
:101D000007D347F20440C0F6000040F2951104F0FA
:101D1000F9F81820002D08BF2820345070BD47F274
:101D20000440C0F600004FF4CA7104F0EBF8022D35
:101D3000EFD3E6E740F63C30C2F20000006870479F
:101D400040F21000C2F2000000687047B0B50446CF
:101D5000006845F6004240F40060C4F20002904280
:101D60000D4606D047F22350C0F60000632104F070
:101D7000C9F86FF48050054206D047F22350C0F6F0
:101D80000000642104F0BEF894F84100202803D13B
:101D900094F84000012801D10220B0BD242084F82D
:101DA00041002068016821F001010160016821F40F
:101DB00080510160016829430160016841F001011F
:101DC0000160202084F84100002084F84000B0BD6C
:101DD000B0B50446006845F6004240F40060C4F225
:101DE000000290420D4612D1102D06D347F2235027
:101DF000C0F60000922104F085F894F841002028F4
:101E000003D194F8400001280BD10220B0BD47F265
:101E10002350C0F60000912104F074F8102DE5D293
:101E2000EBE7242084F841002068016821F00101DB
:101E30000160016821F4706141EA052101600168D7
:101E400041F001010160202084F84100002084F865
:101E50004000B0BD406C7047002804BF01207047AF
:101E600010B50446006845F6004140F40060C4F235
:101E70000001884207D047F2EB40C0F6000040F274
:101E8000262104F03FF8A068B0F5806F07D347F231
:101E9000EB40C0F6000040F2272104F033F8E06880
:101EA0000138022807D347F2EB40C0F600004FF498
:101EB0000A7104F027F8206940F40040B0F5004FA3
:101EC00007D047F2EB40C0F6000040F2292104F0B1
:101ED00019F86069B0F5807F07D347F2EB40C0F690
:101EE000000040F22A2104F00DF8A069082807D369
:101EF00047F2EB40C0F6000040F22B2104F002F85C
:101F0000E06940F40020B0F5002F07D047F2EB4025
:101F1000C0F600004FF40B7103F0F4FF206A40F4A8
:101F20000030B0F5003F07D047F2EB40C0F60000AC
:101F300040F22D2103F0E6FF94F8410028B900207B
:101F400084F84000204600F08DFE242084F84100F3
:101F500094E80310E368026821F0706122F0010246
:101F6000026001618168012B21F4004181604FF41E
:101F7000044108BF4FF4004141EA0C01816041680F
:101F8000022B21F4006108BF01F500614160416846
:101F900004F1100341F0007141F400414160C16857
:101FA00021F40041C1600ECB114341EA0321C1601D
:101FB000D4E9071211430160016841F00101016099
:101FC00000202021606484F84110206384F84200DE
:101FD00010BD00002DE9F04F81B0044690F841009B
:101FE000202803D194F84000012803D1022001B039
:101FF000BDE8F08F01201F461646894684F8400050
:10200000FFF798FE21680546896909043AD4222021
:1020100084F84100102084F8420000206064666269
:1020200067856063608D49F6000840F2000A45F656
:10203000004BCFF60048C0F2FF1AB0F5807FC4F223
:10204000000B39D32068FF2140F4006058452185FA
:1020500007D047F2EB40C0F6000041F6854103F09F
:1020600051FF2068494642686FF39F2102EA080247
:1020700011430AF51052114341603BE0206880692A
:102080000004C4D5204619212A4602F03DFE00284E
:1020900040F0C980FFF74EFE401B1A28EED320689F
:1020A00080690004EAD5606C40F020006064202064
:1020B00084F841000120C7E0668D2068268540F441
:1020C0000060584507D047F2EB40C0F6000041F6EB
:1020D000854103F017FF48466FF39F20F1B240EAB5
:1020E000014021680AF592324B68104303EA080266
:1020F00010434860608D0A9F002800F082806FF3D3
:102100009F297E1C08F5806000901AE0D046B4F844
:102110002AA02068594640F400605845A4F828A039
:1021200060D120685FFA8AF14268009B49EA014168
:102130001A40114341F00071C2464160608D002891
:102140005FD0204639462A4602F0DCFE00286AD1DC
:102150002068616A406A0870606A218D013060629F
:10216000481E2085618D01396185618D0029E5D08A
:10217000000405D0E2E700BF20688069000692D520
:1021800020688069000610D4204639462A4602F0AD
:10219000BBFD002847D1002EF2D0FFF7CBFD002F6A
:1021A000EAD0401BB842EBD9E6E7608DB0F5807FFE
:1021B000ACD3206840F4006058454FF0FF00208504
:1021C00007D047F2EB40C0F6000041F6854103F02E
:1021D00099FE20684168009A114041EA090141EAEC
:1021E0000A01AAE747F2EB40C0F6000041F685413C
:1021F00003F088FE95E700BF2068806980067FF5C0
:1022000052AF20688069800611D4204639462A469C
:1022100002F07AFD38B9FFF78DFD002FECD0401B9E
:10222000B842EED9E8E7012001B0BDE8F08F2068A0
:102230002021C16142684EF60003CFF600631A40C8
:102240004260002084F84110002184F8421084F894
:10225000401001B0BDE8F08F2DE9F04F81B0044689
:1022600090F84100202803D194F84000012803D1C0
:10227000022001B0BDE8F08F01201E4617468946B6
:1022800084F84000FFF756FD216805468969090476
:1022900016D4212084F84100102084F84200002048
:1022A0006064676266856063608DFF2822D94FF0A5
:1022B0008078FF2621E000BF206880690004E8D50F
:1022C000204619212A4602F01FFD002840F0078110
:1022D000FFF730FD401B1A28EED320688069000408
:1022E000EAD5606C40F020006064202084F8410052
:1022F000012005E1668D4FF0007845F6004AC4F2F2
:10230000000A26858EB117F8010B21688862676282
:10231000608D41F4006101386085701E5145208553
:1023200008D1B8F1000F10D11DE0206840F4006022
:102330005045F6D047F2EB40C0F6000041F685412B
:1023400003F0E0FDB8F1000F0DD0B8F1807F0AD0A6
:10235000B8F1007F07D047F2EB40C0F6000041F62D
:10236000864103F0CFFD216849F6004BCFF6004BC4
:102370006FF39F29F0B24A6849EA0040ABF58063E9
:1023800040EA08001A40104340F400504860608D55
:102390000A9F002800F091807E1C4FF0FF0803E0A8
:1023A0002068806980079CD520688069800711D4E7
:1023B000204639462A4602F0A7FC002840F08F80CC
:1023C000002EF1D0FFF7B6FC002FE9D0401BB84239
:1023D000EAD9E5E7616A206811F8012B826261623F
:1023E000618D01396185218D01392185628D002A38
:1023F00059D0090406D056E02068806900067FF5B0
:1024000070AF20688069000610D4204639462A46FD
:1024100002F07AFC002862D1002EF2D0FFF78AFC8D
:10242000002FE9D0401BB842EBD9E5E7608DB0F54D
:10243000807F19D32068A4F8288040F400605045BC
:1024400007D047F2EB40C0F6000041F6854103F0AB
:1024500059FD206800224168C0F2FF1201EA0B0119
:1024600041EA090111431DE0B4F82A802068A4F86C
:10247000288040F40060504507D047F2EB40C0F69A
:10248000000041F6854103F03DFD20685FFA88F1C8
:10249000426849EA014102EA0B02114341F000712E
:1024A0004FF0FF084160608D00287FF47DAF04E0AD
:1024B0002068806980067FF514AF206880698006F7
:1024C00011D4204639462A4602F01EFC38B9FFF7DF
:1024D00031FC002FECD0401BB842EED9E8E70120D8
:1024E00001B0BDE8F08F20682021C16142684EF63E
:1024F0000003CFF600631A404260002084F84110C8
:10250000002184F8421084F8401001B0BDE8F08F3B
:102510002DE9F04F83B08846591E1F469146022987
:10252000044607D347F2EB40C0F6000040F66621B0
:1025300003F0E8FC94F8410020280AD10C9E66B113
:10254000DDF834A0BAF1000F07D094F8400001285C
:1025500007D1022003B0BDE8F08F4FF40070606433
:10256000D8E0012084F84000FFF7E4FB216805462D
:10257000896909043CD4222084F84100402084F871
:102580004200002060646662A4F82AA0216845F633
:10259000004241F40061C4F200029142606307D03E
:1025A00047F2EB40C0F6000041F6854103F0AAFC7B
:1025B00042466FF39F22216849F60043F8B2029227
:1025C000CFF6004342EA00404A68A3F580631A4010
:1025D000104400F5005048608869DDF838A0800795
:1025E0003DD40AF1010B27E0206880690004C2D5C0
:1025F000204619212A4602F087FB002840F08A80F5
:10260000FFF798FB401B1A28EED32068806900046E
:10261000EAD5606C40F020006064202084F841001E
:10262000002084F8420073E020688069800760D54C
:1026300020688069800712D4204651462A4602F05D
:1026400063FB002863D1BBF1000FF1D0FFF772FBF1
:10265000BAF1000FE8D0401B5045E9D9E4E7206803
:10266000012F22D04FEA19218162806980071BD493
:102670000AF1010707E020688069800739D52068E2
:102680008069800710D4204651462A4602F03CFB60
:10269000E8BB002FF3D0FFF74DFBBAF1000FEAD0F3
:1026A000401B5045EBD9E6E720685FFA89F181626B
:1026B00020688069400631D40AF1010607E02068ED
:1026C0008069400615D52068806940061ED42046E2
:1026D00051462A4602F018FBC8B90746002EF2D030
:1026E000FFF728FBBAF1000FE9D0401B5045EAD9AB
:1026F000E5E7606C40F020006064202084F8410031
:10270000002084F8420084F8400000E037B1002047
:1027100084F84000012003B0BDE8F08F608D42F2E4
:102720000047B0F5807FC8F2000707D3FF2020855F
:1027300020464146FF224FF0807306E0608D4146FF
:102740002085C2B220464FF00073009702F078FB5C
:1027500040F2000847F2EB4B0AF101074FF0FF0986
:10276000C0F2FF18C0F6000B04E020688069400743
:102770007FF54FAF20688069400711D4204651464D
:102780002A4602F0C1FA0028C4D1002FF2D0FFF788
:10279000D1FABAF1000FE8D0401B5045EAD9E4E77E
:1027A0002068616A406A0870606A218D0130606249
:1027B000481E2085618D01396185618D00295CD0BD
:1027C000000405D059E02068806900067FF521AF3C
:1027D00020688069000611D4204651462A4602F03E
:1027E00093FA002896D1002FF2D0FFF7A3FABAF19E
:1027F000000FE8D0401B5045EAD9E4E7608DB0F502
:10280000807F1BD3206845F6004140F40060C4F28D
:1028100000018842A4F8289004D0584641F685412A
:1028200003F070FB206849F600424168CFF6004291
:102830001140029A114341EA08011DE0668D2068AB
:1028400045F6004140F40060C4F20001884226854C
:1028500004D0584641F6854103F054FB2068F1B29C
:102860004268029B43EA014149F60043CFF6004328
:102870001A40114341F000714160608D00287FF4DF
:1028800079AF204651462A4602F0AEFB00287FF47D
:1028900041AF20682021C16142684EF60003CFF6A7
:1028A00000631A404260002084F8411084F842001E
:1028B00084F8400003B0BDE8F08F00002DE9F04F30
:1028C00083B08846591E1F4691460229044607D305
:1028D00047F2EB40C0F6000040F6DD1103F012FBBA
:1028E00094F8410020280AD10C9E66B1DDF834A08E
:1028F000BAF1000F07D094F84000012807D1022058
:1029000003B0BDE8F08F4FF400706064DAE001209E
:1029100084F84000FFF70EFA21680546896909042A
:102920003ED4212084F84100402084F84200002059
:1029300060646662A4F82AA0216845F6004241F46A
:102940000061C4F200029142606307D047F2EB409D
:10295000C0F6000041F6854103F0D4FA42466FF319
:102960009F22216849F60043F8B20292CFF6004355
:1029700042EA00404A68A3F580631A40104440F0E0
:10298000807040F4005048608869DDF838A0800706
:102990003DD40AF1010B27E0206880690004C0D50E
:1029A000204619212A4602F0AFF9002840F08A801B
:1029B000FFF7C0F9401B1A28EED320688069000495
:1029C000EAD5606C40F020006064202084F841006B
:1029D000002084F8420073E020688069800760D599
:1029E00020688069800712D4204651462A4602F0AA
:1029F0008BF9002863D1BBF1000FF1D0FFF79AF9F2
:102A0000BAF1000FE8D0401B5045E9D9E4E720684F
:102A1000012F22D04FEA19218162806980071BD4DF
:102A20000AF1010707E020688069800739D520682E
:102A30008069800710D4204651462A4602F064F986
:102A4000E8BB002FF3D0FFF775F9BAF1000FEAD019
:102A5000401B5045EBD9E6E720685FFA89F18162B7
:102A600020688069000631D40AF1010607E0206879
:102A70008069000615D52068806900061ED42046AE
:102A800051462A4602F040F9C8B90746002EF2D056
:102A9000FFF750F9BAF1000FE9D0401B5045EAD9D1
:102AA000E5E7606C40F020006064202084F841007D
:102AB000002084F8420084F8400000E037B1002094
:102AC00084F84000012003B0BDE8F08F608DB0F5C0
:102AD000807F08D3FF202085002720464146FF2223
:102AE0004FF0807307E0608D00272085C2B220463A
:102AF00041464FF00073009702F0A2F940F200083F
:102B000047F2EB4B0AF101074FF0FF09C0F2FF1843
:102B1000C0F6000B04E02068806980077FF551AFA4
:102B200020688069800711D4204651462A4602F069
:102B3000EBF80028C6D1002FF2D0FFF7FBF8BAF16E
:102B4000000FE8D0401B5045EAD9E4E7616A2068ED
:102B500011F8012B82626162618D01396185218DDD
:102B600001392185628D002A5CD0090406D059E024
:102B70002068806900067FF524AF20688069000620
:102B800011D4204651462A4602F0BEF8002899D1B9
:102B9000002FF2D0FFF7CEF8BAF1000FE8D0401BBB
:102BA0005045EAD9E4E7608DB0F5807F1BD32068FB
:102BB00045F6004140F40060C4F200018842A4F8E8
:102BC000289004D0584641F6854103F09BF92068CF
:102BD00049F600424168CFF600421140029A114383
:102BE00041EA08011DE0668D206845F6004140F489
:102BF0000060C4F200018842268504D0584641F6A0
:102C0000854103F07FF92068F1B24268029B43EAF4
:102C1000014149F60043CFF600431A40114341F009
:102C200000714160608D00287FF47AAF20465146E4
:102C30002A4602F0D9F900287FF444AF2068202109
:102C4000C16142684EF60003CFF600631A4042604D
:102C5000002084F8411084F8420084F8400003B05A
:102C6000BDE8F08FB0B59AB0044600201890CDE9C9
:102C70001600CDE9140068465021FDF7CCFB206812
:102C800045F20041C4F20001884201D01AB0B0BD43
:102C900040F20010C0F2030004240890684600943B
:102CA00000F0DCF9002818BFFDF7DAFE4C25C5F668
:102CB0000005286814A940F002002860286800F088
:102CC0000200199019984FF440701490122015903A
:102CD000012016900020CDE9170440F20040C4F610
:102CE0000000FEF797FEE86840F40010E860E8682E
:102CF00000F40010199019981AB0B0BDB0B50028B2
:102D000059D00446006843F20001C4F20001884231
:102D100006D047F25E50C0F60000B52103F0F2F88D
:102D20006068072806D347F25E50C0F60000B6215F
:102D300003F0E8F8A068B0F5805F06D347F25E5074
:102D4000C0F60000B72103F0DDF8E068B0F5805F61
:102D500006D347F25E50C0F60000B82103F0D2F867
:102D600094E807004CF6CC43036045F255530360EA
:102D700041608260FEF7DEFF2168CA68520710D00A
:102D8000054603E02168C86840070AD0FEF7D2FF75
:102D9000401B3228F6D32068C0684007F2D00320D9
:102DA000B0BD0A69E068824212BF08614AF6AA20F3
:102DB00008600020B0BD0120B0BD000001684AF6E7
:102DC000AA2200200A60704740F20C0040F63C3115
:102DD000C2F20000C2F2000100780A6810440860E4
:102DE0007047000010B544F20000C5F6000001680D
:102DF00041F480710160032000F08EF8012001246D
:102E000000F008F808B1204610BD00F02BF80024AF
:102E1000204610BDB0B540F20C05C2F2000529787D
:102E2000F1B1044600F040FE29784FF47A72B2FB0B
:102E3000F1F1B0FBF1F001F023FF0F2C4FF0010591
:102E40000CD858B94FF0FF3021460022002500F081
:102E500023F840F21000C2F2000004602846B0BD22
:102E60000120B0BD70470000B0F1FF3F0CDD00F065
:102E70001F01012202FA01F14EF200124009CEF2C6
:102E8000000242F82010704747F2B040C0F6000040
:102E9000B62103F037B8000070B515460E46102A6B
:102EA000044606D347F2B040C0F60000A42103F068
:102EB00029F8102E06D347F2B040C0F60000A52135
:102EC00003F020F84EF60C50CEF2000001684FF0EF
:102ED000FF33C1F3022181F00702042A28BF042234
:102EE000033903FA02F238BF002126EA02028A40BF
:102EF00003FA01F125EA0101114304F1604204F0F3
:102F00000F03090102F56442043B1844002C48BF3A
:102F100000F10C02117070BD10B50446033805288D
:102F200006D347F2B040C0F600008C2102F0EAFF61
:102F30004EF60C50CEF2000001684FF6FF02114031
:102F400064F30A2141F0806141F0FD71016010BD20
:102F500010B504460138022807D347F27540C0F681
:102F6000000040F2564102F0CDFF40F20041C5F6AC
:102F700000010A684EF6105022F00702CEF200005F
:102F80000A600168012C41F0040101600FBF30BFED
:102F900040BF20BF20BF016821F00401016010BDC7
:102FA00010B504460138022807D347F27540C0F631
:102FB000000040F28B4102F0A5FF40F20041C5F64F
:102FC00000010A6801234EF6105063F30202CEF2AC
:102FD00000000A600168012C41F0040101600FBF8C
:102FE00030BF40BF20BF20BF016821F00401016055
:102FF00010BD000040F20040C5F60000006800F47B
:10300000C060704740F20040C5F60000016821F43E
:10301000807101607047000040F20040C5F600007A
:10302000016841F4807101607047000010B50C46E2
:1030300078B1B0F5804F04D12046BDE81040FFF7CD
:10304000AFBF47F23D40C0F6000040F2472102F01A
:1030500059FF2046BDE81040FFF77ABF2DE9F04345
:1030600081B00446006843F67F71084201D088436E
:1030700030B147F25230C0F600009A2102F042FF10
:10308000207840F288094006C5F6000903D44FF0C5
:10309000000800269FE0206B4FEAB050042806D3BA
:1030A00047F25230C0F60000A12102F02BFF206B46
:1030B0006FF0010101EBB05102290CD34FEAB0507F
:1030C00058B101284CD159F87C0C002640F48030CE
:1030D00049F87C0C72E0002670E0606806387A28B7
:1030E00007D347F25230C0F6000040F2767102F08A
:1030F00009FFA068A0F50030B0F5701F07D947F2AE
:103100005230C0F6000040F2777102F0FBFE6069B9
:103110000021C1F20111084205D04FF6FF71CEF631
:10312000FE61084007D047F25230C0F600004FF46D
:10313000EF6102F0E7FE4FF0B046306820F08060AB
:103140003060FEF7F7FD0546306810F0006709D0E3
:10315000FEF7F0FD401B0328F6D3032627B12DE030
:1031600001262BE000264FBB59F8780CD4E9011258
:1031700020F4FE4040EA012049F8780C59F8780C18
:103180004FF0B04720F47810104349F8780C3868B5
:1031900040F080603860FEF7CDFD054638680001DC
:1031A00005D4FEF7C7FD401B0328F7D303262EB92D
:1031B000606959F8781C084349F8780C0EB1B0469C
:1031C00009E0206BD9F800104FF0000821F440010D
:1031D0000843C9F80000607800074AD5D9F808000C
:1031E000216C00F440754FEA3121042906D347F2DF
:1031F0005230C0F60000D22102F084FE206C8542DD
:103200001AD0FFF709FFCDB1D9F80800D9F8081096
:1032100020F4407041F48031C9F80810D9F8081042
:1032200021F48031C9F80810216C0843C9F808005E
:10323000D9F80800C0070BD1B0461AE0206CD9F8C5
:103240000810B04621F440710843C9F8080010E0A6
:10325000FEF770FD054641F2893700BFD9F8080036
:103260008007E9D4FEF766FD401BB842F6D34FF065
:1032700003082078C00712D0A069042807D347F2BA
:103280005230C0F600004FF4887102F03BFEA06996
:10329000D9F8001021F003010843C9F80000207894
:1032A000800714D5E0694FEAB020042807D347F21D
:1032B0005230C0F6000040F21B1102F023FEE0691C
:1032C000D9F8001021F440610843C9F800002078C3
:1032D000C0061AD5A06AA0F540204FEAB000042825
:1032E00007D347F25230C0F6000040F2251102F039
:1032F00009FEA06AD9F800104FF6FF7262EA0002D8
:10330000114041EA0040C9F80000207880061AD533
:10331000E06AA0F540104FEA3010042807D347F2C6
:103320005230C0F600004FF4967102F0EBFDE06AF7
:10333000D9F800104FF6FF7262EA0002114041EA2C
:103340000040C9F800002078400725D5206AB0F574
:10335000403F13D040F20011C0F2030188420DD06B
:1033600040F20021C0F20301884207D047F25230F8
:10337000C0F600004FF49A7102F0C4FD206AD9F83B
:1033800000106FF47F2262EA1012114000F47F40B7
:1033900041EA0010C9F800002078000725D5606ACE
:1033A000B0F5401F13D041F20001C0F23001884255
:1033B0000DD042F20001C0F23001884207D047F23E
:1033C0005230C0F6000040F23F1102F09BFD606AEF
:1033D000D9F800106FF47F2262EA1012114000F455
:1033E0007F4041EA0010C9F800006078C00700F093
:1033F0009680606B4FEAB060042807D347F25230E2
:10340000C0F600004FF4A57102F07CFD606BD9F8A6
:103410000010B0F1806F21F0406141EA0001C9F86D
:10342000001009D0B0F1006F79D159F87C0C40F050
:10343000807049F87C0C72E0606806387A2807D3FF
:1034400047F25230C0F6000040F2BB7102F05AFD64
:10345000E06800F17E40B0F1406F07D947F252308A
:10346000C0F6000040F2BC7102F04CFD6069002122
:10347000C1F20111084205D04FF6FF71CEF6FE6190
:10348000084007D047F25230C0F6000040F2BD714C
:1034900002F038FD4FF0B045286820F080602860C9
:1034A000FEF748FC064600BF286810F0006707D00A
:1034B000FEF740FC801B0328F6D3032517B12BE051
:1034C00000254FBB59F8780C616820F4FE4040EAB3
:1034D0000120E26849F8780C59F8780C4FF0B047B1
:1034E00020F06060104349F8780C386840F0806044
:1034F0003860FEF71FFC06463868000105D4FEF769
:1035000019FC801B0328F7D303252DB9606959F8EE
:10351000781C084349F8780C002D18BFA84660783D
:10352000800749D5A06BB0F1A05F09DBB0F1E05F87
:103530000EDAB0F1A05F17D0B0F1C05F14D00BE08D
:10354000B0F1004F10D078B1B0F1805F0CD003E043
:103550000AD0B0F1804F07D047F25230C0F60000D9
:103560004FF4B37102F0CEFCA06B6FF04041B0F1AC
:10357000004F0FD070B1B0F1804F02460BD0D9F898
:10358000001020F0805221F04041C9F800106FF087
:10359000406100E00246D9F80030B0F1C05F01EAB6
:1035A000030141EA0201C9F8001005D159F87C0C69
:1035B00040F0807049F87C0C6078400740F19580BD
:1035C000E06B4FEA3070042807D347F25230C0F660
:1035D00000004FF4BB7102F095FCE06BD9F80010CD
:1035E000B0F1805F21F0405141EA0001C9F80010BC
:1035F00009D0B0F1005F78D159F87C0C40F48030EC
:1036000049F87C0C71E0606806387A2807D347F2E5
:103610005230C0F6000040F2FF7102F073FC2069E6
:1036200000F16040B0F1404F07D947F25230C0F688
:1036300000004FF4006102F065FC60690021C1F2F6
:103640000111084205D04FF6FF71CEF6FE61084029
:1036500007D047F25230C0F6000040F6010102F0F8
:1036600051FC4FF0B045286820F080602860FEF7DC
:1036700061FB0646286810F0006707D0FEF75AFB8A
:10368000801B0328F6D3032517B12BE000254FBB81
:1036900059F8780C616820F4FE4040EA0120226964
:1036A00049F8780C59F8780C4FF0B04720F060409A
:1036B000104349F8780C386840F080603860FEF7B5
:1036C00039FB06463868000105D4FEF733FB801B42
:1036D0000328F7D303252DB9606959F8781C0843EE
:1036E00049F8780C002D18BFA8466078C0060DD5A3
:1036F000606C002818BFB0F5804F36D1606CD9F8E7
:103700000C1021F440410843C9F80C006078800691
:1037100027D5E06C4FEA3010042807D347F2523027
:10372000C0F600004FF4D07102F0ECFBA06C03284F
:1037300007D347F25230C0F6000040F2A11102F068
:10374000E1FBD4E9120159F8642C22F03002114354
:1037500049F8641C59F8641C21F00301084349F836
:10376000640C404601B0BDE8F083B0F5404FC5D0D1
:1037700047F25230C0F600004FF4CA7102F0C2FBAB
:10378000BCE700002DE9F04381B0002800F045813E
:10379000054600680C4601386F2807D347F21A30F7
:1037A000C0F6000040F22B4102F0ACFB042C07D322
:1037B00047F21A30C0F6000040F22C4102F0A2FBA2
:1037C00044F20008C5F60008D8F8000000F0070031
:1037D000A04215D2D8F8000020F007002043C8F816
:1037E0000000FEF7A7FA0646D8F8000000F0070030
:1037F000A04205D0FEF79EFA801B0228F4D9F2E021
:10380000287808278007C5F6000732D42878800674
:1038100055D4287840067CD42878400700F1A3804E
:103820002878000700F1C4802878C00740F0DF80C6
:10383000D8F8000000F00700A04240F2F280D8F86B
:10384000000020F007002043C8F80000FEF772FADD
:10385000054600BFD8F8000000F00700A04200F0C5
:10386000E080FEF767FA401B02284FF00300F1D911
:103870000FE1A8686FF0040101EB30110B290BD3A5
:103880004FEA3010032807D347F21A30C0F6000081
:1038900040F2494102F036FBA868396821F0F00196
:1038A00008433860FEF746FA064600BF3868C00392
:1038B000ACD4FEF73FFA801B0228F7D993E0686981
:1038C0006FF0040101EB30110B290BD34FEA3010DC
:1038D000032807D347F21A30C0F6000040F25A41DD
:1038E00002F010FB6869D7F8001121F0F0010843DD
:1038F000C7F80001FEF71EFA064600BFD7F8000120
:1039000080033FF586AFFEF715FA801B0228F5D934
:1039100069E0A8696FF0040101EB30110B290BD3AA
:103920004FEA3010032807D347F21A30C0F60000E0
:1039300040F26A4102F0E6FAA869D7F8001121F0D6
:103940000F0141EA1010C7F80001FEF7F3F906462F
:10395000D7F80001C0033FF55FAFFEF7EBF9801B1E
:103960000228F5D93FE0E8686FF0030101EB302150
:1039700004290AD34FEA302038B147F21A30C0F692
:10398000000040F27B4102F0BDFAE868396821F49A
:10399000E06108433860FEF7CDF9064638688003D9
:1039A0003FF53EAFFEF7C6F9801B0228F6D91AE0B4
:1039B00028696FF0030101EB302104293FD2286907
:1039C000396821F4605141EAC0003860FEF7B2F96D
:1039D000064600BF386840033FF526AFFEF7AAF958
:1039E000801B0228F6D9032001B0BDE8F083686887
:1039F000042807D347F21A30C0F6000040F29D4178
:103A000002F080FA68684FF0B04128B3032843D031
:103A1000022845D10968890321D4012001B0BDE8FD
:103A2000F08300F041F840F20801C2F200010860A2
:103A3000FEF786F901B0BDE8F043FFF7EBB94FEAB6
:103A400030200028BBD047F21A30C0F6000040F208
:103A50008C4102F057FAB2E709688907DDD5396869
:103A600021F0030108433860FEF764F9064641F28D
:103A7000883900BF3868696800F00C00B0EB810F2E
:103A80003FF4D6AEFEF756F9801B48454FF00300D1
:103A9000F0D901B0BDE8F08309688901BDD5DEE742
:103AA00009684905B9D5DAE70C20C5F6000050F8D9
:103AB000041C01F00C0242F20041082AC0F2F40199
:103AC00011D0042A48D0C2B94FF0B041096847F27A
:103AD0004C2201F0F001B02928BFB0218908C0F6BE
:103AE0000002515838E04FF0B0421268D2025CBF79
:103AF00044F60001C0F2E8112EE0026802F0030271
:103B0000022A19D0032A09D14FF0B0421268D2021A
:103B10005CBF44F60001C0F2E8110DE04FF0B04187
:103B2000096847F24C2201F0F001B02928BFB0210A
:103B30008908C0F60002515802680368C2F30622E1
:103B40005143C3F302120132B1FBF2F102680123C7
:103B500003EB5272B1FBF2F150F8040C3C2202EA82
:103B6000900047F20C12C0F600021058B1FBF0F0C2
:103B7000704700002DE9F047002868D0044600682F
:103B8000802807D347F21A30C0F6000040F28B11AC
:103B900002F0B8F9207840F2940A8006C5F6000ACF
:103BA00040F1BA80E069022807D347F21A30C0F624
:103BB000000040F2911102F0A5F9206AB0F5807F73
:103BC00007D347F21A30C0F600004FF4C97102F073
:103BD00099F9606A4FEA30100C2807D347F21A307F
:103BE000C0F6000040F2931102F08CF95AF88C0CE8
:103BF00010F00C015AF8880C05D00C292BD100F0DC
:103C00000300012827D1E069002859D04FF0B041C6
:103C1000606A0A6802F0F002B02A28BFB02290421F
:103C20002DD901F02DFB00284AD14FF0B042D4E944
:103C30000801136823F0F003194311605AF8901C2F
:103C400021F47F4141EA00204AF8900C28E001204D
:103C5000C0B2BDE8F087E1694FF0B047386899B36A
:103C600040F001003860FEF765F8054638688007C7
:103C70003CD4FEF75FF8401B0228F7D932E00A680F
:103C800022F0F00202430A60216A5AF8902C22F4D2
:103C90007F4242EA01214AF8901C01F0F1FA78B91A
:103CA000FFF702FF40F21001C2F2000140F20802E9
:103CB0000968C2F2000210600846FFF7ABF830B3A3
:103CC0004FF00109002023E020F001003860FEF7EA
:103CD00031F805463868800719D5FEF72BF8401BE8
:103CE0000228F7D94FF00309002011E04FF0B0424D
:103CF000D4E90801136823F0F003194311605AF85E
:103D0000901C21F47F4141EA00204AF8900C0120E8
:103D10000028484600F0FE822078C00743D0606843
:103D200040F48030B0F5803F07D047F21A30C0F63B
:103D300000004FF4FE7102F0E5F85AF88C0C00F028
:103D40000C015AF8880C082905D00C290AD100F07A
:103D50000300032806D1606808B101201FE04FF07E
:103D600001091BE04FF0B04765683868B5F5803F42
:103D700020F4803008BF00F580303860FDF7DAFFAE
:103D8000002D05464BD000BF38688003E5D4FDF711
:103D9000D1FF401B6428F7D94FF003090020002809
:103DA000484600F0B7822078800770D5E06840F47C
:103DB0008070B0F5807F07D047F21A30C0F600005F
:103DC00040F2322102F09EF82069802807D347F2A2
:103DD0001A30C0F6000040F2332102F093F85AF88E
:103DE0008C0C00F00C015AF8880C042905D00C2921
:103DF0001DD100F00300022819D1E06898B12069B4
:103E00005AF8901C012621F0FE4141EA00604AF870
:103E1000900C38E0FDF78EFF401B6428BCD8386852
:103E20008003F7D499E74FF0010900262BE0E16801
:103E30004FF0B047386889B140F480703860FDF7C2
:103E400079FF054638684005D9D4FDF773FF401B5C
:103E50000228F7D94FF00309002614E020F48070FF
:103E60003860FDF767FF05464FF00108386810F429
:103E7000806088EA902606D0FDF75CFF401B022890
:103E8000F4D94FF00309002E484600F04382207811
:103E900010F0180F00F0BE80606948B1052807D007
:103EA00047F21A30C0F6000040F2772102F02AF8FB
:103EB0006069B8B12078C0062BD4DAF8000040F071
:103EC0000100CAF80000FDF735FF0546DAF80000EA
:103ED00080076FD4FDF72EFF401B02284FF0030030
:103EE000F4D917E2DAF8000020F00400CAF8000064
:103EF000FDF720FF054600BFDAF80000000743D5B4
:103F0000FDF718FF401B0328F6D90320C0B2BDE817
:103F1000F087A069102807D347F21A30C0F60000D6
:103F200040F27F2101F0EEFFDAF80000800715D49F
:103F3000DAF8000040F00100CAF80000FDF7FAFED0
:103F4000054600BFDAF80000800707D4FDF7F2FE4F
:103F5000401B02284FF00300F4D9DBE1DAF800003F
:103F600040F00400CAF80000FDF7E4FE054600BF7B
:103F7000DAF8000000072FD4FDF7DCFE401B032811
:103F80004FF00300F4D9C5E1DAF8000020F0010099
:103F9000CAF80000FDF7CEFE054600BFDAF80000C3
:103FA000800737D5FDF7C6FE401B02284FF00300FF
:103FB000F4D9AFE1DAF8000020F00400CAF80000FC
:103FC000DAF80000000725D5FDF7B4FE401B0328F2
:103FD0004FF00300F4D99DE1A069DAF8001021F454
:103FE000706141EA0020CAF80000DAF8000020F011
:103FF0000100CAF80000FDF79DFE0546DAF8000052
:10400000800707D5FDF796FE401B02284FF00300FE
:10401000F4D97FE12078400700F1AD802078400698
:1040200000F1E280E06A032807D347F21A30C0F6B5
:1040300000004FF4597101F065FFE06A002800F0BC
:10404000F8805AF88C1C5AF8885C022801F00C0899
:1040500040F0F380206B0138032807D347F21A3071
:10406000C0F6000040F26F3101F04CFF606B4FEA88
:104070003010082807D347F21A30C0F600004FF47A
:104080005C7101F03FFFA06B06387A2807D347F236
:104090001A30C0F6000040F2713101F033FFE06BDE
:1040A000A0F50030B0F5701F07D947F21A30C0F6FE
:1040B000000040F2723101F025FF206C00F17E40DB
:1040C000B0F1406F07D947F21A30C0F6000040F255
:1040D000733101F017FF606C00F16040B0F1404FA8
:1040E00007D947F21A30C0F600004FF45D7101F0B5
:1040F00009FF206B05F00301814240F0B380606B43
:1041000005F07001814240F0AD80A06BC5F306213F
:10411000814240F0A780E06B05F47811814240F0C5
:10412000A180206C05F06061814240F09B80606C52
:1041300005F06041814240F095804FF0B046306814
:10414000800100F10081306840F0807030605AF8E2
:10415000880C40F080504AF8880CFDF7EBFD0446CF
:10416000306810F0007540F01F81FDF7E3FD001B83
:104170000228F5D916E1A068052805D8012101FA21
:1041800000F010F0230F07D147F21A30C0F60000FC
:1041900040F2FE2101F0B6FEDAF86C03C00511D43E
:1041A000FEF73AFFFDF7C6FD054600BFDAF86C03DF
:1041B000C00507D4FDF7BEFD401B02284FF00300E9
:1041C000F4D9A7E0A568052D00F08580012D00F049
:1041D00088805AF8040C20F001004AF8040C5AF8C0
:1041E000040C20F0040080E0A06A022807D347F204
:1041F0001A30C0F6000040F23B3101F083FEA16AA4
:10420000DAF80400002952D040F00100CAF8040096
:10421000FDF790FD054600BFDAF8040080073FF582
:1042200001AFFDF787FD401B02284FF00300F3D9D3
:1042300070E00020C0B2BDE8F087B8F10C0F2CD0C0
:104240004FF0B045286820F080702860FDF772FDBF
:104250000446286880016DD5FDF76CFD001B02281F
:10426000F7D916E0B8F10C0F17D04FF0B046306810
:10427000400112D4306820F080703060FDF75AFDA4
:1042800005463068800160D5FDF754FD401B0228CB
:10429000F7D94FF00309002502E04FF0010900258E
:1042A0004846002D18BF0020C0B2BDE8F08720F0BE
:1042B0000100CAF80400FDF73DFD0546DAF80400E8
:1042C00080077FF5AFAEFDF735FD401B02284FF0AC
:1042D0000300F3D91EE05AF8040C40F004004AF839
:1042E000040C5AF8040C40F001004AF8040CFDF7E5
:1042F00021FD002D054641F2883616D05AF8040CEF
:1043000080073FF58BAEFDF715FD401BB0424FF027
:104310000300F3D9C0B2BDE8F08700BFFDF70AFD86
:10432000401BB0424FF00300F4D85AF8040C800749
:10433000F4D473E65AF8880C4FF6FC71CEF6FE61A1
:1043400008404AF8880C0125AAE75AF8880C48F278
:104350008C01C1F2C11104F1300708408ECFD4E9BD
:1043600010650843104340EA032038433043284394
:104370004AF8880C4FF0B046306840F080703060EA
:104380005AF8880C40F080504AF8880CFDF7D2FCAF
:104390000446306810F0007506D1FDF7CBFC001B19
:1043A0000228F6D94FF00309002D18BF012577E741
:1043B000B0B50C461429054607D347F2CF50C0F6D6
:1043C000000040F28D5101F09DFD286800EB840053
:1043D000006DB0BD70B514460D461429064607D3CE
:1043E00047F2CF50C0F6000040F2775101F08AFD4D
:1043F000306800EB8500046570BD0000F0B581B049
:1044000015460E46052A044637D2B6F5803F07D337
:1044100047F2CF50C0F6000040F2674101F072FD54
:1044200094F8200001284FF002006AD0012184F89E
:10443000201084F821002068CA2141625321416282
:104440008068400524D42068816821F480618160FF
:10445000C16861F4906121F48061C160FDF76AFC7C
:10446000074600BF2168C868400723D4FDF762FCF7
:10447000C01BB0F57A7FF5D918E0062DC5D047F2FC
:10448000CF50C0F6000040F2664101F03BFDBCE7B2
:10449000FDF750FC074600BF2068C0684007D2D532
:1044A000FDF748FCC01BB0F57A7FF5D921680322DF
:1044B00003201FE04E61886820F00700886088684C
:1044C0002843886040F60000C5F60000D0F8802040
:1044D00042F40022C0F88020026842F40022026008
:1044E0008868012240F480408860886840F48060D9
:1044F00088600020FF234B62002184F8212084F88B
:10450000201001B0F0BD00000068C16861F4906146
:1045100021F48061C160704710B504460068C0682E
:10452000400509D52046FFF7EFFF2068C16861F418
:10453000906121F48061C16040F60C00C5F6000076
:104540004FF400210160012084F8210010BD00001B
:1045500070B5002800F08F800446006842F6000520
:10456000C4F20005A84206D047F29750C0F60000FA
:10457000F12101F0C7FC606840F04000402806D0FF
:1045800047F29750C0F60000F22101F0BBFCA06892
:10459000802806D347F29750C0F60000F32101F0BF
:1045A000B1FCE068B0F5004F06D347F29750C0F673
:1045B0000000F42101F0A6FC20694FEA70500428A5
:1045C00006D347F29750C0F60000F52101F09AFC9F
:1045D000606940F00200022806D047F29750C0F60A
:1045E0000000F62101F08EFCA06940F48010B0F5C7
:1045F000801F06D047F29750C0F60000F72101F067
:1046000081FCE069022806D347F29750C0F600000B
:10461000F82101F077FC94F8210028B9002084F8F3
:104620002000204600F078F8022084F82100E86895
:10463000C00669D42068CA21416253214162C16821
:1046400049061AD44FF0FF31C160FDF773FB0546F0
:104650002068C068400610D4FDF76CFB401BB0F525
:104660007A7FF5D92068FF214162042084F8210077
:10467000012000214AE0012070BD94E80F004FF6B0
:10468000BF758668CFF68F752E40866026693143E8
:10469000A66985683143294381600361016941EA64
:1046A00002410161C16821F08001C160C16C21F04B
:1046B0000301C164E1696269C36C11431943C164B8
:1046C000816889061DD4C16821F0A001C160FDF791
:1046D00031FB05462068C06810F0200611D1FDF7B7
:1046E00029FB401BB0F57A7FF4D956B92068FF2129
:1046F0004162042084F82100002084F82000012079
:1047000070BD2068FF2141620020012100291CBFEB
:10471000012184F8211070BD10B596B0044601A89F
:104720005021FBF778FE206842F60001C4F2000138
:10473000884201D016B010BD4FF4006001904FF4D4
:104740008070119001A8FEF789FC002818BFFCF7C3
:1047500087F95820C5F60000816B002241F4004122
:104760008163016841F4806101600068002100F408
:104770008060159015980320FEF78EFB0320FEF74E
:1047800073FB16B010BD00002DE9F04116460D4632
:10479000022A044607D347F29750C0F6000040F2C1
:1047A000B53101F0AFFB94F8200001284FF0020072
:1047B00008BFBDE8F081012184F8201084F82100B1
:1047C00036B96878C10642BF00F0EF000A30687061
:1047D00028780138072807D347F29750C0F6000021
:1047E00040F2C13101F08EFBE878002E40D0010983
:1047F00001EB810100F00F0000EB4100C0B2642822
:1048000007D347F29750C0F600004FF4747101F0DF
:1048100079FB6878010901EB810100F00F0000EBE2
:1048200041000138C0B20C2807D347F29750C0F6B8
:10483000000040F2D13101F065FBA878010901EBDD
:10484000810100F00F0000EB41000138C0B21F28C9
:1048500007D347F29750C0F6000040F2D23101F082
:1048600051FB6878E978AE78000240EA01485DE0E3
:10487000642807D347F29750C0F6000040F2C531D4
:1048800001F040FB687801380C2807D347F29750B5
:10489000C0F6000040F2C63101F034FBA8780138C0
:1048A0001F2807D347F29750C0F6000040F2C731E7
:1048B00001F028FBE9784FF0CD0CA1F10A02D3B248
:1048C00003FB0CF3DF0A687807EB8707A2EB4702CC
:1048D0004FF0010EAE780EEBD323092988BF42EAD0
:1048E0000311A0F10A02D3B203FB0CF3DF0A07EBBA
:1048F0008707A2EB47020EEBD323092888BF42EAC1
:104900000310C0B2C9B2000240EA0148A6F10A0091
:10491000C1B201FB0CF1CA0A02EB8202A0EB420019
:104920000EEBD121092E88BF40EA01162068CA216A
:104930002F78416253214162C168490611D44FF07A
:10494000FF31C160FDF7F6F9054600BF2068C06879
:10495000400606D4FDF7EEF9401BB0F57A7FF5D995
:1049600022E0F0B240EA0800790320F0C00220689B
:1049700011434160C16821F08001C16081688906EE
:1049800015D4C16821F0A001C160FDF7D3F9054637
:104990002068C06810F0200609D1FDF7CBF9401B54
:1049A000B0F57A7FF4D916B90120042101E0002086
:1049B00001212268FF23536284F82110002184F82A
:1049C0002010BDE8F08100002DE9F04381B01646CB
:1049D0000D46022A044607D347F29750C0F600005E
:1049E00040F2053101F08EFA94F8200001284FF0D2
:1049F000020000F03881012184F8201084F82100A1
:104A00002068806800F0400086B1C8B928780109A4
:104A100001EB810100F00F0000EB4100C0B200216A
:104A20001828E9702DD340F22A3124E0002856D10D
:104A3000287800211828E9706AD340F2163161E025
:104A40002878010901EB810100F00F0000EB410023
:104A50000138C0B20C2807D347F29750C0F60000C7
:104A60004FF4497101F04EFAE87840F040004028D8
:104A700007D040F2253147F29750C0F6000001F010
:104A800041FA6878010901EB810100F00F0000EBA9
:104A90004100C0B23C2807D347F29750C0F600004F
:104AA0004FF44B7101F02EFAA878010901EB810156
:104AB00000F00F0000EB4100C0B23C2807D347F2E2
:104AC0009750C0F6000040F22D3101F01BFA6978D2
:104AD000287895F80290090241EA00486BE02878AE
:104AE00001380C2807D347F29750C0F600004FF466
:104AF000447101F007FAE87840F04000402807D000
:104B000040F2113147F29750C0F6000001F0FAF977
:104B100068783C2807D347F29750C0F600004FF45E
:104B2000467101F0EFF9A8783C2807D347F2975077
:104B3000C0F6000040F2193101F0E4F928784FF096
:104B4000CD0CA0F10A02D3B203FB0CF3DE0A6978A4
:104B500006EB8606A2EB4602012695F8029006EBCC
:104B6000D323092888BF42EA0310A1F10A02D3B275
:104B700003FB0CF3DF0A07EB8707A2EB470206EB08
:104B8000D323092988BF42EA0311C9B2C0B209027E
:104B900041EA0048A9F10A00C1B201FB0CF1CA0ABE
:104BA00002EB8202A0EB420006EBD121B9F1090F22
:104BB00088BF40EA01192068CA21EF784162532179
:104BC0004162C168490610D44FF0FF31C160FDF762
:104BD000B1F806462068C068400606D4FDF7AAF87A
:104BE000801BB0F57A7FF5D930E05FFA89F040EAB2
:104BF000080047F67F7240EA0741C0F27F02206852
:104C000011400160816821F480218160D5E903129F
:104C10008368114319438160C16821F08001C1603C
:104C20008168890615D4C16821F0A001C160FDF733
:104C300081F805462068C06810F0200609D1FDF70C
:104C400079F8401BB0F57A7FF4D916B90120042118
:104C500001E0002001212268FF23536284F8211023
:104C6000002184F8201001B0BDE8F0834EF210005E
:104C7000CEF20000016841F00201016070470000BF
:104C8000411E0020B0EB116F1CBF012070474EF297
:104C90001002CEF2000251604EF62351CEF2000116
:104CA000F0230B7007219060116070474EF21000E6
:104CB000CEF20000016821F002010160704700009F
:104CC000FEE7000070B582B040F2AF0440F6642504
:104CD000C2F2000442F21076C2F200052070617048
:104CE0002846AA21224602230096FDF7B5FA40B1D4
:104CF0002846FDF7AFF80428F2D04FF0FF3002B09D
:104D000070BD002002B070BD2DE9F04381B00446B3
:104D1000006816468369DA0602D4002100204AE0C2
:104D20000D461021C16120688169890635D40027AC
:104D300005F101094FF0000806E000BF2068816915
:104D400001F0200139432CD1B9F1000FF6D0FCF766
:104D5000F1FF15B1801BA842F0D92068426894F891
:104D6000421083691B040BD512F4804208D120291C
:104D700006D0416841F480414160FCF7DBFF064604
:104D8000206880698006D9D4FCF7D4FF801B1A28DC
:104D9000F6D348F020080127D0E701214FF00008A2
:104DA00002E0B7FA87F1490900291CBF2021C1613F
:104DB00048F00401012022689369DF0507D45F05EC
:104DC0000DD49B0513D4D0B901B0BDE8F0834FF4E6
:104DD000807041F00101D06101205F05F1D54FF4F1
:104DE000806041F00801D06101209B05EBD54FF4B4
:104DF000007041F00201D06101200028E4D09369E5
:104E00009B0744BF002393629369DB0703D1936937
:104E100043F00103936153684EF60007CFF6006735
:104E20003B405360626C11436164202184F841105F
:104E3000002184F8421084F8401001B0BDE8F083EE
:104E40002DE9F04104460068904645F6004240F4E2
:104E50000060C4F200021D4690420F4607D047F2A0
:104E6000EB40C0F6000041F6854101F04BF8069E8C
:104E7000002D18BFB5F1807F38D143F6FF70C8F21E
:104E8000000086420CDC42F20000C8F200008642BC
:104E900015D042F20040C8F2000086420FD006E072
:104EA00044F20000C8F20000864208D03EB147F24A
:104EB000EB40C0F6000041F6874101F023F86FF3A4
:104EC0009F2721684FF4806347EA084003EA56535E
:104ED00028434A6883F07C43304383F41C4320F02A
:104EE00000401A4010434860BDE8F081B5F1007FF2
:104EF000C3D047F2EB40C0F6000041F6864101F016
:104F000001F8BAE72DE9F04F81B0054600680027A7
:104F100080694FF00008400761D44EF6000B14463C
:104F200089464FF0200ACFF6006B4FF0000800BF13
:104F3000284649462246FFF7E7FE2968002818BFA1
:104F40004FF001088869800620D55FEA08601DD10E
:104F50008869400703D5288D002818BFB84688699E
:104F6000C00601D46F6411E01020C8610420686499
:104F7000C1F81CA048684FF0010800EA0B00486027
:104F800085F841A085F8427085F840704E46B9F129
:104F9000000F18BF0126FCF7CDFE001B48454FF05F
:104FA000000098BF0120064208BF5FEA086007D0F2
:104FB00028688069400712D45FEA0860B8D00EE024
:104FC000286880694007F3D4686C4FF0010840F00E
:104FD0002000686485F841A085F84070E8E75FFA32
:104FE00088F001B0BDE8F08F70B5044600688069B4
:104FF000800619D415460E4608E000BF2068806977
:10500000800615D52068806980060DD4204631467B
:105010002A46FFF779FE48B9FCF78CFE002EEDD04A
:10502000401BB042EED9E9E7002070BD012070BD01
:10503000606C40F020006064202084F84100002073
:1050400084F8420084F84000012070BD2DE9F04151
:1050500084B040F6C825C2F2000528460C21FFF7AF
:10506000A7F9039003A8FBF7FDF9416948F21F5225
:1050700001F26C71C5F2EB1251FB02F2530903EB22
:10508000D272642302FB131190F80C80067C00247A
:1050900001A8CFB28DF808400194FBF74FFC2846D9
:1050A0000521FFF785F99DF80410B94260D8B9428F
:1050B00006F1010206D19DF80530D6B2B34201D9FE
:1050C000002455E0B9420AD19DF80510D2B29142B0
:1050D00005D19DF80610414501D9002448E09DF80E
:1050E00006309DF80710020A43454FF0000409D12D
:1050F000D7B2B94206D19DF80870C6B2BF1BB7FA45
:1051000087F77C09434528D9FDF786FF42F66400FE
:10511000C4F200000168426948F68903D2B252FA2B
:1051200081F2C8F68803A2FB03377B094AF6AB2756
:1051300053FA91F1CAF6AA27A1FB077602EB830284
:10514000330903EB4303A1EBC30102F03F0242EA40
:1051500001210160FDF756FF0AE009D1D2B28A426F
:10516000D2D38A4204D19DF80810C0B28842CBD372
:10517000204604B0BDE8F0812DE9F04184B040F64E
:10518000C824C2F2000420460C21FFF711F9039055
:1051900003A8FBF767F9416948F21F5201F26C71ED
:1051A000C5F2EB1251FB02F2530903EBD2726423F6
:1051B00002FB131190F80C80067C002501A8CFB2E9
:1051C0008DF808500195FBF7B9FB20460321FFF746
:1051D000EFF89DF80410B9423ED80446B94206F1F2
:1051E000010006D19DF80520C3B29A4201D90025DD
:1051F00032E0B9420AD19DF80510C0B2814205D112
:105200009DF80600404501D9002525E09DF80600DF
:1052100040450FD9FDF700FFC0F2001440F6C8204A
:10522000C2F2000003212246FFF7D4F8FDF7EAFEA0
:10523000012511E00FD1210A9DF80700C9B2814272
:10524000E8D381424FF0000506D19DF80800E1B295
:105250008142DFD300E00025284604B0BDE8F0819C
:105260004168006880F30888084700000146002074
:1052700001F016BFFEE70000FEE7000070470000E7
:1052800070B504464FEA30100C284FEA141507D3C6
:1052900047F21A30C0F6000040F2B96100F032FE69
:1052A00047F24C2105F00F00C0F6000101EB800031
:1052B000B02C88BF01F12C0040F20811C5F60001A6
:1052C0000068096847F20C1201F00F01C0F60002F5
:1052D00052F82110B0FBF1F04DF68361C4F21B319E
:1052E000A0FB01018C0CFDF785FEB0F5007F09D114
:1052F00000201BA151F82020A2420ED20130042828
:10530000F8D108E0002013A151F82020A24204D2D5
:1053100001300328F8D1002502E015A151F82050F2
:1053200044F20006C5F60006306820F00700284366
:105330003060FCF7FFFC0446306800F00700A8422C
:1053400006D0FCF7F7FC001B0328F5D3032070BD43
:10535000002070BD060000000C00000010000000DE
:105360001200000024000000360000004000000091
:105370000000000001000000020000000300000027
:10538000010901EB810100F00F0000EB4100C0B208
:105390007047000040F6C820C2F20000FFF7BCB81A
:1053A0002DE9F04381B040F2D804C2F200049146E6
:1053B000227898460D46064612B3022E56D8089A11
:1053C000EFF311804FF0200181F311885EB106EBFD
:1053D000460104EBC10100230D66C1F86490C1F8D9
:1053E00068800B67CB6606EB460104EBC1014A6798
:1053F000BFF35F8F80F31188002001B0BDE8F08318
:105400002046A821FBF707F803202061606147F2DE
:105410000A6040F2C011C0F60000C2F20001A061B3
:10542000E1614FF4806121620021A1626162E16269
:10543000206640F28010C2F200006066402047F211
:105440008C22A0662167E1666167601E0F21C0F6AD
:105450000002BFF35F8F00BF535C01394F1C00F89F
:10546000013FF9D1BFF35F8F022EA8D94FF0FF3073
:1054700001B0BDE8F08300002DE9F04381B040F2B7
:10548000D804C2F200049146227898460D4606469A
:1054900002B3022E54D8089AEFF311804FF0200186
:1054A00081F311885EB106EB460104EBC1010023D4
:1054B0008D61C1F81C90C1F820808B624B6206EBB5
:1054C000460104EBC101CA6280F31188002001B0DB
:1054D000BDE8F0832046A821FAF79DFF0320206154
:1054E000606147F20A6040F2C011C0F60000C2F2EB
:1054F0000001A061E1614FF4806121620021A1629D
:105500006162E162206640F28010C2F200006066D3
:10551000402047F28C22A0662167E1666167601E29
:105520000F21C0F60002BFF35F8F00BF535C01394B
:105530004F1C00F8013FF9D1BFF35F8F022EAAD9AB
:105540004FF0FF3001B0BDE8F0830000F0B581B04E
:1055500040F2D807C2F2000714463A780D460646D4
:1055600092BB3846A821FAF756FF032038617861CC
:1055700047F20A6040F2C011C0F60000C2F200011A
:10558000B861F9614FF4806139620021B9627962D2
:10559000F962386640F28010C2F20000786640205E
:1055A00047F28C22B8663967F9667967781E0F2151
:1055B000C0F60002BFF35F8F535C01394F1C00F847
:1055C000013FF9D1BFF35F8FEFF311874FF0200157
:1055D00081F3118830462946224600F005F887F30A
:1055E000118801B0F0BD00002DE9F04F81B040F20C
:1055F000D80300EB4000C2F2000303EBC007F86AD7
:105600001446022889460BD001283FD0002846D1F5
:105610003D4655F8246F6868B0426ED9F1436FE09B
:1056200057F8245F0026381DA7F1040BBA46A7F1EE
:105630000808009024E000BFDBF80010EA431044A3
:105640000844DBF800104F1BB84238BF0746D8F8B3
:105650000000A74228BF2746284449463A46FAF7A1
:1056600095FEDBF800007919E41B0D1A3E44B9449D
:1056700018BF0D46002CBFF35F8FCAF8005067D0EB
:1056800000980068A842D7D9E943D9E7BA465AF842
:10569000245FDAF80400A84203D9E94304E00026B5
:1056A00056E0396AEA431044084457F81C1FA042E8
:1056B0007A6838BF0446561BB44201EB05000AD293
:1056C00049462246FAF762FE6019BFF35F8FCAF8B7
:1056D000000026463CE049463246FAF757FEA4EB66
:1056E0000608386809EB06014246FAF74FFEBFF399
:1056F0005F8FCAF8008026462AE0396AF2431044D8
:105700000844A04201D2002622E057F81C0F796815
:105710003044A1EB060AA24509D949462246FAF7C8
:1057200035FE3019BFF35F8F2860264610E04946EA
:105730005246FAF72BFEA4EB0A08386809EB0A0177
:105740004246FAF723FEBFF35F8FC5F80080264676
:10575000304601B0BDE8F08F2DE9F04F9BB00E460A
:1057600006A91546169140214FF000084FF0FF3A68
:105770000DF1580B179103901A90CDE918880592F6
:1057800007E0CDF8608000BF1998B0F1FF3F40F30B
:10579000018216F8010B25281CD0002800F0FA81A0
:1057A000DDE91732511C994205D8169B9854199877
:1057B000189101301990DDE917028242E4D116995F
:1057C0001A98FFF7C3FE18998842DAD0CDF864A082
:1057D000DAE700BF4FF0000902E001360020F8B917
:1057E0003078A0F123010D294FF00100F7D8DFE850
:1057F00001F009070707070707070C070F0707133B
:10580000EDE700BF49F00809E7E749F00409E4E7DC
:1058100049F00109E1E700BF49F00209DDE700BFF7
:105820003178A1F13A0010F10A0F01D200200EE008
:1058300000200A4616F8011F00EB800002EB400032
:10584000A1F13A02303812F10B0F0A46F2D82E2994
:1058500016D116F8011F0024A1F13A0212F10A0F25
:1058600010D300BF04EB840201EB420216F8011FC3
:10587000A2F13004A1F13A0313F10B0FF2D801E0C9
:10588000002400BF16F8011B01F0FB02682AF9D0C2
:10589000A1F15802202A1BD8DFE802F012111111E1
:1058A000111111111111112A3511111111111111AB
:1058B000111111116811117611A11111120063E774
:1058C00029680A1D2A6009680090584610228DE058
:1058D00025297FF459AFDDE91721481C90423FF696
:1058E0006AAF169A2523535419991890481C61E7FA
:1058F000DDE917722868511C031DB9422B603FF681
:105900005AAF006851E729684FF0010B0A1D2A6061
:10591000D1F8008046F26765B8F1000F4146C8F142
:10592000000748BF39460A29C6F2666509DB00BF91
:1059300051FB05F29310632903EBD2710BF1010BBC
:10594000F6DCA34598BFA3460028049754D0002155
:10595000B8F1000F48BF012109F0040241EA9201A9
:10596000A0EB010A19F002074BD14BE02868102286
:10597000011D296001680820009058460823CDF8D1
:10598000048000F0E9F9FFE62868011D2960046839
:1059900006E000BF19980134B0F1FF3F7FF7F4AE85
:1059A000207800283FF4F0AEDDE91732511C99420F
:1059B00005D8169B98541998189101301990DDE973
:1059C00017028242E6D116991A98FFF7BFFD18997F
:1059D00088420CBFCDF86080CDF864A0DAE7296872
:1059E0000A1D2A600968009058460A222346CDF80D
:1059F000049000F0B1F9C7E64FF0000A19F0020771
:105A000000D02CB15FEAC97002D1BAF1000F2FD1DA
:105A1000199800284ED4B8F1FF3F4DDD5FEA497078
:105A20001BD5DDE91721481C904206D8169A2B2376
:105A3000535419991890481C1990DDE917028242B5
:105A40000BD116991A98FFF781FD1899884207BF64
:105A5000002018904FF0FF301990059DCDF8108070
:105A600048E000BF1998AAF1010AB0F1FF3FCFDD6D
:105A7000BAF1000FCCD0D345CAD2DDE91721481CBA
:105A8000904206D8169A2023535419991890481C0E
:105A90001990DDE917028242E4D116991A98FFF7AE
:105AA00055FD1899884207BF002018904FF0FF302D
:105AB0001990D7E7059D35E0DDE91721481C904294
:105AC00006D8169A2D23535419991890481C1990EA
:105AD000DDE91702059D82420CD116991A98FFF74D
